{
  "contractName": "Voting",
  "abi": [
    {
      "anonymous": false,
      "inputs": [
        {
          "indexed": false,
          "internalType": "address",
          "name": "_addr",
          "type": "address"
        }
      ],
      "name": "LogDepositReceived",
      "type": "event"
    },
    {
      "anonymous": false,
      "inputs": [
        {
          "indexed": true,
          "internalType": "address",
          "name": "previousOwner",
          "type": "address"
        },
        {
          "indexed": true,
          "internalType": "address",
          "name": "newOwner",
          "type": "address"
        }
      ],
      "name": "OwnershipTransferred",
      "type": "event"
    },
    {
      "anonymous": false,
      "inputs": [
        {
          "indexed": false,
          "internalType": "uint256",
          "name": "proposalId",
          "type": "uint256"
        }
      ],
      "name": "ProposalRegistered",
      "type": "event"
    },
    {
      "anonymous": false,
      "inputs": [
        {
          "indexed": false,
          "internalType": "address",
          "name": "voter",
          "type": "address"
        },
        {
          "indexed": false,
          "internalType": "uint256",
          "name": "proposalId",
          "type": "uint256"
        }
      ],
      "name": "Voted",
      "type": "event"
    },
    {
      "anonymous": false,
      "inputs": [
        {
          "indexed": false,
          "internalType": "address",
          "name": "voterAddress",
          "type": "address"
        }
      ],
      "name": "VoterRegistered",
      "type": "event"
    },
    {
      "anonymous": false,
      "inputs": [
        {
          "indexed": false,
          "internalType": "enum Voting.WorkflowStatus",
          "name": "previousStatus",
          "type": "uint8"
        },
        {
          "indexed": false,
          "internalType": "enum Voting.WorkflowStatus",
          "name": "newStatus",
          "type": "uint8"
        }
      ],
      "name": "WorkflowStatusChange",
      "type": "event"
    },
    {
      "inputs": [],
      "name": "owner",
      "outputs": [
        {
          "internalType": "address",
          "name": "",
          "type": "address"
        }
      ],
      "stateMutability": "view",
      "type": "function",
      "constant": true
    },
    {
      "inputs": [],
      "name": "renounceOwnership",
      "outputs": [],
      "stateMutability": "nonpayable",
      "type": "function"
    },
    {
      "inputs": [
        {
          "internalType": "address",
          "name": "newOwner",
          "type": "address"
        }
      ],
      "name": "transferOwnership",
      "outputs": [],
      "stateMutability": "nonpayable",
      "type": "function"
    },
    {
      "inputs": [],
      "name": "winningProposalID",
      "outputs": [
        {
          "internalType": "uint256",
          "name": "",
          "type": "uint256"
        }
      ],
      "stateMutability": "view",
      "type": "function",
      "constant": true
    },
    {
      "inputs": [],
      "name": "workflowStatus",
      "outputs": [
        {
          "internalType": "enum Voting.WorkflowStatus",
          "name": "",
          "type": "uint8"
        }
      ],
      "stateMutability": "view",
      "type": "function",
      "constant": true
    },
    {
      "stateMutability": "payable",
      "type": "receive",
      "payable": true
    },
    {
      "inputs": [
        {
          "internalType": "address",
          "name": "_addr",
          "type": "address"
        }
      ],
      "name": "getVoter",
      "outputs": [
        {
          "components": [
            {
              "internalType": "bool",
              "name": "isRegistered",
              "type": "bool"
            },
            {
              "internalType": "bool",
              "name": "hasVoted",
              "type": "bool"
            },
            {
              "internalType": "uint256",
              "name": "votedProposalId",
              "type": "uint256"
            }
          ],
          "internalType": "struct Voting.Voter",
          "name": "",
          "type": "tuple"
        }
      ],
      "stateMutability": "view",
      "type": "function",
      "constant": true
    },
    {
      "inputs": [
        {
          "internalType": "uint256",
          "name": "_id",
          "type": "uint256"
        }
      ],
      "name": "getOneProposal",
      "outputs": [
        {
          "components": [
            {
              "internalType": "string",
              "name": "description",
              "type": "string"
            },
            {
              "internalType": "uint256",
              "name": "voteCount",
              "type": "uint256"
            }
          ],
          "internalType": "struct Voting.Proposal",
          "name": "",
          "type": "tuple"
        }
      ],
      "stateMutability": "view",
      "type": "function",
      "constant": true
    },
    {
      "inputs": [
        {
          "internalType": "address",
          "name": "_addr",
          "type": "address"
        }
      ],
      "name": "addVoter",
      "outputs": [],
      "stateMutability": "nonpayable",
      "type": "function"
    },
    {
      "inputs": [
        {
          "internalType": "string",
          "name": "_desc",
          "type": "string"
        }
      ],
      "name": "addProposal",
      "outputs": [],
      "stateMutability": "nonpayable",
      "type": "function"
    },
    {
      "inputs": [
        {
          "internalType": "uint256",
          "name": "_id",
          "type": "uint256"
        }
      ],
      "name": "setVote",
      "outputs": [],
      "stateMutability": "nonpayable",
      "type": "function"
    },
    {
      "inputs": [],
      "name": "startProposalsRegistering",
      "outputs": [],
      "stateMutability": "nonpayable",
      "type": "function"
    },
    {
      "inputs": [],
      "name": "endProposalsRegistering",
      "outputs": [],
      "stateMutability": "nonpayable",
      "type": "function"
    },
    {
      "inputs": [],
      "name": "startVotingSession",
      "outputs": [],
      "stateMutability": "nonpayable",
      "type": "function"
    },
    {
      "inputs": [],
      "name": "endVotingSession",
      "outputs": [],
      "stateMutability": "nonpayable",
      "type": "function"
    },
    {
      "inputs": [],
      "name": "tallyVotes",
      "outputs": [
        {
          "internalType": "uint256",
          "name": "",
          "type": "uint256"
        }
      ],
      "stateMutability": "nonpayable",
      "type": "function"
    },
    {
      "inputs": [],
      "name": "restartSession",
      "outputs": [],
      "stateMutability": "nonpayable",
      "type": "function"
    }
  ],
  "bytecode": "0x60806040523480156200001157600080fd5b5062000032620000266200003860201b60201c565b6200004060201b60201c565b62000104565b600033905090565b60008060009054906101000a900473ffffffffffffffffffffffffffffffffffffffff169050816000806101000a81548173ffffffffffffffffffffffffffffffffffffffff021916908373ffffffffffffffffffffffffffffffffffffffff1602179055508173ffffffffffffffffffffffffffffffffffffffff168173ffffffffffffffffffffffffffffffffffffffff167f8be0079c531659141344cd1fd0a4f28419497f9722a3daafe3b4186f6b6457e060405160405180910390a35050565b6126ff80620001146000396000f3fe6080604052600436106100f75760003560e01c8063a7bfab161161008a578063d4f50f9811610059578063d4f50f98146102e8578063ee74c67814610325578063f2fde38b1461033c578063f4ab9adf1461036557610135565b8063a7bfab1614610278578063bdc014311461028f578063c7038a4e146102ba578063c88af42f146102d157610135565b8063795769e5116100c6578063795769e5146101ce5780638da5cb5b146101e5578063a1edffa214610210578063a2788cce1461023b57610135565b8063230796ae1461013a5780632fdae3c514610163578063378a21781461018c578063715018a6146101b757610135565b36610135577f15382559391789f1865e10e9c8b51327a9cb0381eae89973ada229e7a78c08f33360405161012b91906116ab565b60405180910390a1005b600080fd5b34801561014657600080fd5b50610161600480360381019061015c9190611706565b61038e565b005b34801561016f57600080fd5b5061018a60048036038101906101859190611798565b6106e5565b005b34801561019857600080fd5b506101a1610968565b6040516101ae91906117f4565b60405180910390f35b3480156101c357600080fd5b506101cc610a56565b005b3480156101da57600080fd5b506101e3610a6a565b005b3480156101f157600080fd5b506101fa610ada565b60405161020791906116ab565b60405180910390f35b34801561021c57600080fd5b50610225610b03565b6040516102329190611886565b60405180910390f35b34801561024757600080fd5b50610262600480360381019061025d9190611706565b610b16565b60405161026f919061197d565b60405180910390f35b34801561028457600080fd5b5061028d610c7d565b005b34801561029b57600080fd5b506102a4610d63565b6040516102b191906117f4565b60405180910390f35b3480156102c657600080fd5b506102cf610d69565b005b3480156102dd57600080fd5b506102e6610fc2565b005b3480156102f457600080fd5b5061030f600480360381019061030a91906119cb565b6110a7565b60405161031c9190611a55565b60405180910390f35b34801561033157600080fd5b5061033a6111cf565b005b34801561034857600080fd5b50610363600480360381019061035e91906119cb565b6112b5565b005b34801561037157600080fd5b5061038c600480360381019061038791906119cb565b611338565b005b600460003373ffffffffffffffffffffffffffffffffffffffff1673ffffffffffffffffffffffffffffffffffffffff16815260200190815260200160002060000160009054906101000a900460ff1661041d576040517f08c379a000000000000000000000000000000000000000000000000000000000815260040161041490611acd565b60405180910390fd5b600360058111156104315761043061180f565b5b600260009054906101000a900460ff1660058111156104535761045261180f565b5b14610493576040517f08c379a000000000000000000000000000000000000000000000000000000000815260040161048a90611b5f565b60405180910390fd5b60011515600460003373ffffffffffffffffffffffffffffffffffffffff1673ffffffffffffffffffffffffffffffffffffffff16815260200190815260200160002060000160019054906101000a900460ff16151503610529576040517f08c379a000000000000000000000000000000000000000000000000000000000815260040161052090611bcb565b60405180910390fd5b6003805490508110610570576040517f08c379a000000000000000000000000000000000000000000000000000000000815260040161056790611c37565b60405180910390fd5b80600460003373ffffffffffffffffffffffffffffffffffffffff1673ffffffffffffffffffffffffffffffffffffffff168152602001908152602001600020600101819055506001600460003373ffffffffffffffffffffffffffffffffffffffff1673ffffffffffffffffffffffffffffffffffffffff16815260200190815260200160002060000160016101000a81548160ff0219169083151502179055506003818154811061062657610625611c57565b5b9060005260206000209060020201600101600081548092919061064890611cb5565b919050555060036001548154811061066357610662611c57565b5b9060005260206000209060020201600101546003828154811061068957610688611c57565b5b90600052602060002090600202016001015411156106a957806001819055505b7f4d99b957a2bc29a30ebd96a7be8e68fe50a3c701db28a91436490b7d53870ca433826040516106da929190611cfd565b60405180910390a150565b600460003373ffffffffffffffffffffffffffffffffffffffff1673ffffffffffffffffffffffffffffffffffffffff16815260200190815260200160002060000160009054906101000a900460ff16610774576040517f08c379a000000000000000000000000000000000000000000000000000000000815260040161076b90611acd565b60405180910390fd5b600160058111156107885761078761180f565b5b600260009054906101000a900460ff1660058111156107aa576107a961180f565b5b146107ea576040517f08c379a00000000000000000000000000000000000000000000000000000000081526004016107e190611d72565b60405180910390fd5b6040516020016107f990611db8565b604051602081830303815290604052805190602001208282604051602001610822929190611e14565b6040516020818303038152906040528051906020012003610878576040517f08c379a000000000000000000000000000000000000000000000000000000000815260040161086f90611eaa565b60405180910390fd5b61088061162b565b82828080601f016020809104026020016040519081016040528093929190818152602001838380828437600081840152601f19601f8201169050808301925050505050505081600001819052506003819080600181540180825580915050600190039060005260206000209060020201600090919091909150600082015181600001908161090e9190612105565b506020820151816001015550507f92e393e9b54e2f801d3ea4beb0c5e71a21cc34a5d34b77d0fb8a3aa1650dc18f600160038054905061094e91906121d7565b60405161095b91906117f4565b60405180910390a1505050565b60006109726114e1565b600460058111156109865761098561180f565b5b600260009054906101000a900460ff1660058111156109a8576109a761180f565b5b146109e8576040517f08c379a00000000000000000000000000000000000000000000000000000000081526004016109df9061227d565b60405180910390fd5b6005600260006101000a81548160ff02191690836005811115610a0e57610a0d61180f565b5b02179055507f0a97a4ee45751e2abf3e4fc8946939630b11b371ea8ae39ccdc3056e98f5cc3f60046005604051610a4692919061229d565b60405180910390a1600154905090565b610a5e6114e1565b610a68600061155f565b565b610a726114e1565b6000600260006101000a81548160ff02191690836005811115610a9857610a9761180f565b5b02179055507f0a97a4ee45751e2abf3e4fc8946939630b11b371ea8ae39ccdc3056e98f5cc3f60046000604051610ad092919061229d565b60405180910390a1565b60008060009054906101000a900473ffffffffffffffffffffffffffffffffffffffff16905090565b600260009054906101000a900460ff1681565b610b1e61162b565b600460003373ffffffffffffffffffffffffffffffffffffffff1673ffffffffffffffffffffffffffffffffffffffff16815260200190815260200160002060000160009054906101000a900460ff16610bad576040517f08c379a0000000000000000000000000000000000000000000000000000000008152600401610ba490611acd565b60405180910390fd5b60038281548110610bc157610bc0611c57565b5b9060005260206000209060020201604051806040016040529081600082018054610bea90611f28565b80601f0160208091040260200160405190810160405280929190818152602001828054610c1690611f28565b8015610c635780601f10610c3857610100808354040283529160200191610c63565b820191906000526020600020905b815481529060010190602001808311610c4657829003601f168201915b505050505081526020016001820154815250509050919050565b610c856114e1565b60036005811115610c9957610c9861180f565b5b600260009054906101000a900460ff166005811115610cbb57610cba61180f565b5b14610cfb576040517f08c379a0000000000000000000000000000000000000000000000000000000008152600401610cf290611b5f565b60405180910390fd5b6004600260006101000a81548160ff02191690836005811115610d2157610d2061180f565b5b02179055507f0a97a4ee45751e2abf3e4fc8946939630b11b371ea8ae39ccdc3056e98f5cc3f60036004604051610d5992919061229d565b60405180910390a1565b60015481565b610d716114e1565b60006005811115610d8557610d8461180f565b5b600260009054906101000a900460ff166005811115610da757610da661180f565b5b14610de7576040517f08c379a0000000000000000000000000000000000000000000000000000000008152600401610dde90612338565b60405180910390fd5b6001600260006101000a81548160ff02191690836005811115610e0d57610e0c61180f565b5b0217905550610e1a61162b565b6040518060400160405280601681526020017f444f204b574f4e20666f72204c554e4120637261736800000000000000000000815250816000018190525060038190806001815401808255809150506001900390600052602060002090600202016000909190919091506000820151816000019081610e999190612105565b506020820151816001015550506040518060600160405280602281526020016126a860229139816000018190525060038190806001815401808255809150506001900390600052602060002090600202016000909190919091506000820151816000019081610f089190612105565b506020820151816001015550506040518060600160405280602f8152602001612679602f9139816000018190525060038190806001815401808255809150506001900390600052602060002090600202016000909190919091506000820151816000019081610f779190612105565b506020820151816001015550507f0a97a4ee45751e2abf3e4fc8946939630b11b371ea8ae39ccdc3056e98f5cc3f60006001604051610fb792919061229d565b60405180910390a150565b610fca6114e1565b60016005811115610fde57610fdd61180f565b5b600260009054906101000a900460ff16600581111561100057610fff61180f565b5b14611040576040517f08c379a0000000000000000000000000000000000000000000000000000000008152600401611037906123ca565b60405180910390fd5b60028060006101000a81548160ff021916908360058111156110655761106461180f565b5b02179055507f0a97a4ee45751e2abf3e4fc8946939630b11b371ea8ae39ccdc3056e98f5cc3f6001600260405161109d92919061229d565b60405180910390a1565b6110af611645565b600460003373ffffffffffffffffffffffffffffffffffffffff1673ffffffffffffffffffffffffffffffffffffffff16815260200190815260200160002060000160009054906101000a900460ff1661113e576040517f08c379a000000000000000000000000000000000000000000000000000000000815260040161113590611acd565b60405180910390fd5b600460008373ffffffffffffffffffffffffffffffffffffffff1673ffffffffffffffffffffffffffffffffffffffff1681526020019081526020016000206040518060600160405290816000820160009054906101000a900460ff161515151581526020016000820160019054906101000a900460ff161515151581526020016001820154815250509050919050565b6111d76114e1565b600260058111156111eb576111ea61180f565b5b600260009054906101000a900460ff16600581111561120d5761120c61180f565b5b1461124d576040517f08c379a00000000000000000000000000000000000000000000000000000000081526004016112449061245c565b60405180910390fd5b6003600260006101000a81548160ff021916908360058111156112735761127261180f565b5b02179055507f0a97a4ee45751e2abf3e4fc8946939630b11b371ea8ae39ccdc3056e98f5cc3f600260036040516112ab92919061229d565b60405180910390a1565b6112bd6114e1565b600073ffffffffffffffffffffffffffffffffffffffff168173ffffffffffffffffffffffffffffffffffffffff160361132c576040517f08c379a0000000000000000000000000000000000000000000000000000000008152600401611323906124ee565b60405180910390fd5b6113358161155f565b50565b6113406114e1565b600060058111156113545761135361180f565b5b600260009054906101000a900460ff1660058111156113765761137561180f565b5b146113b6576040517f08c379a00000000000000000000000000000000000000000000000000000000081526004016113ad90612580565b60405180910390fd5b60011515600460008373ffffffffffffffffffffffffffffffffffffffff1673ffffffffffffffffffffffffffffffffffffffff16815260200190815260200160002060000160009054906101000a900460ff1615150361144c576040517f08c379a0000000000000000000000000000000000000000000000000000000008152600401611443906125ec565b60405180910390fd5b6001600460008373ffffffffffffffffffffffffffffffffffffffff1673ffffffffffffffffffffffffffffffffffffffff16815260200190815260200160002060000160006101000a81548160ff0219169083151502179055507fb6be2187d059cc2a55fe29e0e503b566e1e0f8c8780096e185429350acffd3dd816040516114d691906116ab565b60405180910390a150565b6114e9611623565b73ffffffffffffffffffffffffffffffffffffffff16611507610ada565b73ffffffffffffffffffffffffffffffffffffffff161461155d576040517f08c379a000000000000000000000000000000000000000000000000000000000815260040161155490612658565b60405180910390fd5b565b60008060009054906101000a900473ffffffffffffffffffffffffffffffffffffffff169050816000806101000a81548173ffffffffffffffffffffffffffffffffffffffff021916908373ffffffffffffffffffffffffffffffffffffffff1602179055508173ffffffffffffffffffffffffffffffffffffffff168173ffffffffffffffffffffffffffffffffffffffff167f8be0079c531659141344cd1fd0a4f28419497f9722a3daafe3b4186f6b6457e060405160405180910390a35050565b600033905090565b604051806040016040528060608152602001600081525090565b6040518060600160405280600015158152602001600015158152602001600081525090565b600073ffffffffffffffffffffffffffffffffffffffff82169050919050565b60006116958261166a565b9050919050565b6116a58161168a565b82525050565b60006020820190506116c0600083018461169c565b92915050565b600080fd5b600080fd5b6000819050919050565b6116e3816116d0565b81146116ee57600080fd5b50565b600081359050611700816116da565b92915050565b60006020828403121561171c5761171b6116c6565b5b600061172a848285016116f1565b91505092915050565b600080fd5b600080fd5b600080fd5b60008083601f84011261175857611757611733565b5b8235905067ffffffffffffffff81111561177557611774611738565b5b6020830191508360018202830111156117915761179061173d565b5b9250929050565b600080602083850312156117af576117ae6116c6565b5b600083013567ffffffffffffffff8111156117cd576117cc6116cb565b5b6117d985828601611742565b92509250509250929050565b6117ee816116d0565b82525050565b600060208201905061180960008301846117e5565b92915050565b7f4e487b7100000000000000000000000000000000000000000000000000000000600052602160045260246000fd5b6006811061184f5761184e61180f565b5b50565b60008190506118608261183e565b919050565b600061187082611852565b9050919050565b61188081611865565b82525050565b600060208201905061189b6000830184611877565b92915050565b600081519050919050565b600082825260208201905092915050565b60005b838110156118db5780820151818401526020810190506118c0565b60008484015250505050565b6000601f19601f8301169050919050565b6000611903826118a1565b61190d81856118ac565b935061191d8185602086016118bd565b611926816118e7565b840191505092915050565b61193a816116d0565b82525050565b6000604083016000830151848203600086015261195d82826118f8565b91505060208301516119726020860182611931565b508091505092915050565b600060208201905081810360008301526119978184611940565b905092915050565b6119a88161168a565b81146119b357600080fd5b50565b6000813590506119c58161199f565b92915050565b6000602082840312156119e1576119e06116c6565b5b60006119ef848285016119b6565b91505092915050565b60008115159050919050565b611a0d816119f8565b82525050565b606082016000820151611a296000850182611a04565b506020820151611a3c6020850182611a04565b506040820151611a4f6040850182611931565b50505050565b6000606082019050611a6a6000830184611a13565b92915050565b600082825260208201905092915050565b7f596f75277265206e6f74206120766f7465720000000000000000000000000000600082015250565b6000611ab7601283611a70565b9150611ac282611a81565b602082019050919050565b60006020820190508181036000830152611ae681611aaa565b9050919050565b7f566f74696e672073657373696f6e20686176656e74207374617274656420796560008201527f7400000000000000000000000000000000000000000000000000000000000000602082015250565b6000611b49602183611a70565b9150611b5482611aed565b604082019050919050565b60006020820190508181036000830152611b7881611b3c565b9050919050565b7f596f75206861766520616c726561647920766f74656400000000000000000000600082015250565b6000611bb5601683611a70565b9150611bc082611b7f565b602082019050919050565b60006020820190508181036000830152611be481611ba8565b9050919050565b7f50726f706f73616c206e6f7420666f756e640000000000000000000000000000600082015250565b6000611c21601283611a70565b9150611c2c82611beb565b602082019050919050565b60006020820190508181036000830152611c5081611c14565b9050919050565b7f4e487b7100000000000000000000000000000000000000000000000000000000600052603260045260246000fd5b7f4e487b7100000000000000000000000000000000000000000000000000000000600052601160045260246000fd5b6000611cc0826116d0565b91507fffffffffffffffffffffffffffffffffffffffffffffffffffffffffffffffff8203611cf257611cf1611c86565b5b600182019050919050565b6000604082019050611d12600083018561169c565b611d1f60208301846117e5565b9392505050565b7f50726f706f73616c7320617265206e6f7420616c6c6f77656420796574000000600082015250565b6000611d5c601d83611a70565b9150611d6782611d26565b602082019050919050565b60006020820190508181036000830152611d8b81611d4f565b9050919050565b50565b6000611da2600083611a70565b9150611dad82611d92565b600082019050919050565b60006020820190508181036000830152611dd181611d95565b9050919050565b82818337600083830152505050565b6000611df38385611a70565b9350611e00838584611dd8565b611e09836118e7565b840190509392505050565b60006020820190508181036000830152611e2f818486611de7565b90509392505050565b7f566f7573206e6520706f7576657a20706173206e65207269656e2070726f706f60008201527f7365720000000000000000000000000000000000000000000000000000000000602082015250565b6000611e94602383611a70565b9150611e9f82611e38565b604082019050919050565b60006020820190508181036000830152611ec381611e87565b9050919050565b7f4e487b7100000000000000000000000000000000000000000000000000000000600052604160045260246000fd5b7f4e487b7100000000000000000000000000000000000000000000000000000000600052602260045260246000fd5b60006002820490506001821680611f4057607f821691505b602082108103611f5357611f52611ef9565b5b50919050565b60008190508160005260206000209050919050565b60006020601f8301049050919050565b600082821b905092915050565b600060088302611fbb7fffffffffffffffffffffffffffffffffffffffffffffffffffffffffffffffff82611f7e565b611fc58683611f7e565b95508019841693508086168417925050509392505050565b6000819050919050565b6000612002611ffd611ff8846116d0565b611fdd565b6116d0565b9050919050565b6000819050919050565b61201c83611fe7565b61203061202882612009565b848454611f8b565b825550505050565b600090565b612045612038565b612050818484612013565b505050565b5b818110156120745761206960008261203d565b600181019050612056565b5050565b601f8211156120b95761208a81611f59565b61209384611f6e565b810160208510156120a2578190505b6120b66120ae85611f6e565b830182612055565b50505b505050565b600082821c905092915050565b60006120dc600019846008026120be565b1980831691505092915050565b60006120f583836120cb565b9150826002028217905092915050565b61210e826118a1565b67ffffffffffffffff81111561212757612126611eca565b5b6121318254611f28565b61213c828285612078565b600060209050601f83116001811461216f576000841561215d578287015190505b61216785826120e9565b8655506121cf565b601f19841661217d86611f59565b60005b828110156121a557848901518255600182019150602085019450602081019050612180565b868310156121c257848901516121be601f8916826120cb565b8355505b6001600288020188555050505b505050505050565b60006121e2826116d0565b91506121ed836116d0565b925082820390508181111561220557612204611c86565b5b92915050565b7f43757272656e7420737461747573206973206e6f7420766f74696e672073657360008201527f73696f6e20656e64656400000000000000000000000000000000000000000000602082015250565b6000612267602a83611a70565b91506122728261220b565b604082019050919050565b600060208201905081810360008301526122968161225a565b9050919050565b60006040820190506122b26000830185611877565b6122bf6020830184611877565b9392505050565b7f5265676973746572696e672070726f706f73616c732063616e7420626520737460008201527f6172746564206e6f770000000000000000000000000000000000000000000000602082015250565b6000612322602983611a70565b915061232d826122c6565b604082019050919050565b6000602082019050818103600083015261235181612315565b9050919050565b7f5265676973746572696e672070726f706f73616c7320686176656e742073746160008201527f7274656420796574000000000000000000000000000000000000000000000000602082015250565b60006123b4602883611a70565b91506123bf82612358565b604082019050919050565b600060208201905081810360008301526123e3816123a7565b9050919050565b7f5265676973746572696e672070726f706f73616c73207068617365206973206e60008201527f6f742066696e6973686564000000000000000000000000000000000000000000602082015250565b6000612446602b83611a70565b9150612451826123ea565b604082019050919050565b6000602082019050818103600083015261247581612439565b9050919050565b7f4f776e61626c653a206e6577206f776e657220697320746865207a65726f206160008201527f6464726573730000000000000000000000000000000000000000000000000000602082015250565b60006124d8602683611a70565b91506124e38261247c565b604082019050919050565b60006020820190508181036000830152612507816124cb565b9050919050565b7f566f7465727320726567697374726174696f6e206973206e6f74206f70656e2060008201527f7965740000000000000000000000000000000000000000000000000000000000602082015250565b600061256a602383611a70565b91506125758261250e565b604082019050919050565b600060208201905081810360008301526125998161255d565b9050919050565b7f416c726561647920726567697374657265640000000000000000000000000000600082015250565b60006125d6601283611a70565b91506125e1826125a0565b602082019050919050565b60006020820190508181036000830152612605816125c9565b9050919050565b7f4f776e61626c653a2063616c6c6572206973206e6f7420746865206f776e6572600082015250565b6000612642602083611a70565b915061264d8261260c565b602082019050919050565b6000602082019050818103600083015261267181612635565b905091905056fe53424620666f72203130422073746f6c6c656e20212120286d79206661766f72697465206f6e652e2e2e7368757429414c4558204d415348494e534b5920666f722043454c534955532062616e6b72756ea26469706673582212207fb801e019592e08411f102b108e52a2ac12103e682c8a7f396326b8863ec78d64736f6c63430008110033",
  "immutableReferences": {},
  "source": "// SPDX-License-Identifier: MIT\n\npragma solidity 0.8.17;\nimport \"../node_modules/@openzeppelin/contracts/access/Ownable.sol\";\n\n/// @title Voting dapps\n/// @author Jerome JULIEN (almost :) )\n/// @notice This contract is a simple voting software. Admin can manage voters, proposals and voting session process. Voters can...vote !\n/// @dev Multi voting session management is not yet implemented. COuld be fun\ncontract Voting is Ownable {\n    /// @notice This uint allow to identify le winning proposal at the end of the process\n    uint256 public winningProposalID;\n\n    struct Voter {\n        bool isRegistered;\n        bool hasVoted;\n        uint256 votedProposalId;\n    }\n\n    struct Proposal {\n        string description;\n        uint256 voteCount;\n    }\n\n    enum WorkflowStatus {\n        RegisteringVoters,\n        ProposalsRegistrationStarted,\n        ProposalsRegistrationEnded,\n        VotingSessionStarted,\n        VotingSessionEnded,\n        VotesTallied\n    }\n\n    WorkflowStatus public workflowStatus;\n    Proposal[] proposalsArray;\n    mapping(address => Voter) voters;\n\n    /// @notice Returns the address of each new voter registered\n    event VoterRegistered(address voterAddress);\n\n    /// @notice Returns the old and the new workflow status\n    event WorkflowStatusChange(\n        WorkflowStatus previousStatus,\n        WorkflowStatus newStatus\n    );\n\n    /// @notice Returns each new proposal registered\n    /// @param proposalId Id of the created proposal\n    event ProposalRegistered(uint256 proposalId);\n\n    /// @notice Returns each vote registered (voter + proposal voted)\n    /// @param voter address of the registered voter\n    /// @param proposalId id the the voted proposal\n    event Voted(address voter, uint256 proposalId);\n\n    /// @notice event for the received() function\n    /// @param _addr address of the sender\n    event LogDepositReceived(address _addr);\n\n    modifier onlyVoters() {\n        require(voters[msg.sender].isRegistered, \"You're not a voter\");\n        _;\n    }\n\n    // on peut faire un modifier pour les tats\n\n    // ::::::::::::: GETTERS ::::::::::::: //\n    /// @notice function used to get a voter status\n    /// @param _addr address of the searched voter\n    /// @return Voter struct of the searched voter\n    function getVoter(address _addr)\n        external\n        view\n        onlyVoters\n        returns (Voter memory)\n    {\n        return voters[_addr];\n    }\n\n    /// @notice function used to get a proposal\n    /// @param _id id of the searched proposal\n    /// @return Proposal struct of the searched Proposal\n    function getOneProposal(uint256 _id)\n        external\n        view\n        onlyVoters\n        returns (Proposal memory)\n    {\n        return proposalsArray[_id];\n    }\n\n    // ::::::::::::: REGISTRATION ::::::::::::: //\n    /// @notice add a new voter sor the session. Only for admin\n    /// @dev the function check the workflow status and if the address is already registered before going forward\n    /// @param _addr address of the voter to add\n    function addVoter(address _addr) external onlyOwner {\n        require(\n            workflowStatus == WorkflowStatus.RegisteringVoters,\n            \"Voters registration is not open yet\"\n        );\n        require(voters[_addr].isRegistered != true, \"Already registered\");\n\n        voters[_addr].isRegistered = true;\n        emit VoterRegistered(_addr);\n    }\n\n    // ::::::::::::: PROPOSAL ::::::::::::: //\n    /// @notice add a new proposal sor the session. Only for registered voters\n    /// @dev the function check the workflow status and if the proposal isn't empty before going forward\n    /// @param _desc description of the proposal to add\n    function addProposal(string calldata _desc) external onlyVoters {\n        require(\n            workflowStatus == WorkflowStatus.ProposalsRegistrationStarted,\n            \"Proposals are not allowed yet\"\n        );\n        require(\n            keccak256(abi.encode(_desc)) != keccak256(abi.encode(\"\")),\n            \"Vous ne pouvez pas ne rien proposer\"\n        ); // facultatif\n        // voir que desc est different des autres\n\n        Proposal memory proposal;\n        proposal.description = _desc;\n        proposalsArray.push(proposal);\n        emit ProposalRegistered(proposalsArray.length - 1);\n    }\n\n    // ::::::::::::: VOTE ::::::::::::: //\n    /// @notice set the vote of a registered voter and update the winning proposal if needed\n    /// @dev the function check the workflow status, the existance of the proposal chosen and if the voter hasn't alreayd voted\n    /// @dev te winning propocal is updated in this function to prevent DDOS gas limit attack by usage of a loop in tallyVotes function\n    /// @param _id id of the proposal to vote for\n    function setVote(uint256 _id) external onlyVoters {\n        require(\n            workflowStatus == WorkflowStatus.VotingSessionStarted,\n            \"Voting session havent started yet\"\n        );\n        require(voters[msg.sender].hasVoted != true, \"You have already voted\");\n        require(_id < proposalsArray.length, \"Proposal not found\"); // pas oblig, et pas besoin du >0 car uint\n\n        voters[msg.sender].votedProposalId = _id;\n        voters[msg.sender].hasVoted = true;\n        proposalsArray[_id].voteCount++;\n        // update of the winning proposal at each vote to prevent DOS gaslimit attack\n        if (\n            proposalsArray[_id].voteCount >\n            proposalsArray[winningProposalID].voteCount\n        ) {\n            winningProposalID = _id;\n        }\n\n        emit Voted(msg.sender, _id);\n    }\n\n    // ::::::::::::: STATE ::::::::::::: //\n    /// @notice status modifidation function. Launch the proposal registration and init the pre registered proposal\n    ///@dev the function check the actual workflow status before going forward\n    function startProposalsRegistering() external onlyOwner {\n        require(\n            workflowStatus == WorkflowStatus.RegisteringVoters,\n            \"Registering proposals cant be started now\"\n        );\n        workflowStatus = WorkflowStatus.ProposalsRegistrationStarted;\n\n        Proposal memory proposal;\n        proposal.description = \"DO KWON for LUNA crash\";\n        proposalsArray.push(proposal);\n        proposal.description = \"ALEX MASHINSKY for CELSIUS bankrun\";\n        proposalsArray.push(proposal);\n        proposal\n            .description = \"SBF for 10B stollen !! (my favorite one...shut)\";\n        proposalsArray.push(proposal);\n\n        emit WorkflowStatusChange(\n            WorkflowStatus.RegisteringVoters,\n            WorkflowStatus.ProposalsRegistrationStarted\n        );\n    }\n\n    /// @notice status modifidation function. Stop the proposal registration\n    ///@dev the function check the actual workflow status before going forward\n    function endProposalsRegistering() external onlyOwner {\n        require(\n            workflowStatus == WorkflowStatus.ProposalsRegistrationStarted,\n            \"Registering proposals havent started yet\"\n        );\n        workflowStatus = WorkflowStatus.ProposalsRegistrationEnded;\n        emit WorkflowStatusChange(\n            WorkflowStatus.ProposalsRegistrationStarted,\n            WorkflowStatus.ProposalsRegistrationEnded\n        );\n    }\n\n    /// @notice status modifidation function. Start the voting session\n    ///@dev the function check the actual workflow status before going forward\n    function startVotingSession() external onlyOwner {\n        require(\n            workflowStatus == WorkflowStatus.ProposalsRegistrationEnded,\n            \"Registering proposals phase is not finished\"\n        );\n        workflowStatus = WorkflowStatus.VotingSessionStarted;\n        emit WorkflowStatusChange(\n            WorkflowStatus.ProposalsRegistrationEnded,\n            WorkflowStatus.VotingSessionStarted\n        );\n    }\n\n    /// @notice status modifidation function. End the voting session\n    ///@dev the function check the actual workflow status before going forward\n    function endVotingSession() external onlyOwner {\n        require(\n            workflowStatus == WorkflowStatus.VotingSessionStarted,\n            \"Voting session havent started yet\"\n        );\n        workflowStatus = WorkflowStatus.VotingSessionEnded;\n        emit WorkflowStatusChange(\n            WorkflowStatus.VotingSessionStarted,\n            WorkflowStatus.VotingSessionEnded\n        );\n    }\n\n    /// @notice status modifidation function. Tally the vote\n    ///@dev the function check the actual workflow status before going forward\n    /// @dev as winning proposal is updating at each vote, tallyvote just change the status\n    function tallyVotes() external onlyOwner returns (uint256) {\n        require(\n            workflowStatus == WorkflowStatus.VotingSessionEnded,\n            \"Current status is not voting session ended\"\n        );\n\n        workflowStatus = WorkflowStatus.VotesTallied;\n        emit WorkflowStatusChange(\n            WorkflowStatus.VotingSessionEnded,\n            WorkflowStatus.VotesTallied\n        );\n\n        return winningProposalID;\n    }\n\n    /// @notice funciton to aese the front end development. Non core function for the final DAPP\n    /// @dev this function just change the process status but didn't reset all parameters (voters, proposal). Could be a good upgrade\n    function restartSession() external onlyOwner {\n        workflowStatus = WorkflowStatus.RegisteringVoters;\n        emit WorkflowStatusChange(\n            WorkflowStatus.VotingSessionEnded,\n            WorkflowStatus.RegisteringVoters\n        );\n    }\n\n    /// @notice received function in case of ether send to the contract\n    receive() external payable {\n        emit LogDepositReceived(msg.sender);\n    }\n}\n",
  "sourcePath": "/Users/jeromejulien/Documents/vscode/FormationAlyra/02_Projets/Alyra_projet3_DAPPS_Voting/truffle/contracts/Voting.sol",
  "compiler": {
    "name": "solc",
    "version": "0.8.17+commit.8df45f5f.Emscripten.clang"
  },
  "schemaVersion": "3.4.10",
  "updatedAt": "2022-11-21T10:39:42.910Z",
  "networkType": "ethereum",
  "devdoc": {
    "author": "Jerome JULIEN (almost :) )",
    "details": "Multi voting session management is not yet implemented. COuld be fun",
    "events": {
      "LogDepositReceived(address)": {
        "params": {
          "_addr": "address of the sender"
        }
      },
      "ProposalRegistered(uint256)": {
        "params": {
          "proposalId": "Id of the created proposal"
        }
      },
      "Voted(address,uint256)": {
        "params": {
          "proposalId": "id the the voted proposal",
          "voter": "address of the registered voter"
        }
      }
    },
    "kind": "dev",
    "methods": {
      "addProposal(string)": {
        "details": "the function check the workflow status and if the proposal isn't empty before going forward",
        "params": {
          "_desc": "description of the proposal to add"
        }
      },
      "addVoter(address)": {
        "details": "the function check the workflow status and if the address is already registered before going forward",
        "params": {
          "_addr": "address of the voter to add"
        }
      },
      "endProposalsRegistering()": {
        "details": "the function check the actual workflow status before going forward"
      },
      "endVotingSession()": {
        "details": "the function check the actual workflow status before going forward"
      },
      "getOneProposal(uint256)": {
        "params": {
          "_id": "id of the searched proposal"
        },
        "returns": {
          "_0": "Proposal struct of the searched Proposal"
        }
      },
      "getVoter(address)": {
        "params": {
          "_addr": "address of the searched voter"
        },
        "returns": {
          "_0": "Voter struct of the searched voter"
        }
      },
      "owner()": {
        "details": "Returns the address of the current owner."
      },
      "renounceOwnership()": {
        "details": "Leaves the contract without owner. It will not be possible to call `onlyOwner` functions anymore. Can only be called by the current owner. NOTE: Renouncing ownership will leave the contract without an owner, thereby removing any functionality that is only available to the owner."
      },
      "restartSession()": {
        "details": "this function just change the process status but didn't reset all parameters (voters, proposal). Could be a good upgrade"
      },
      "setVote(uint256)": {
        "details": "the function check the workflow status, the existance of the proposal chosen and if the voter hasn't alreayd votedte winning propocal is updated in this function to prevent DDOS gas limit attack by usage of a loop in tallyVotes function",
        "params": {
          "_id": "id of the proposal to vote for"
        }
      },
      "startProposalsRegistering()": {
        "details": "the function check the actual workflow status before going forward"
      },
      "startVotingSession()": {
        "details": "the function check the actual workflow status before going forward"
      },
      "tallyVotes()": {
        "details": "the function check the actual workflow status before going forwardas winning proposal is updating at each vote, tallyvote just change the status"
      },
      "transferOwnership(address)": {
        "details": "Transfers ownership of the contract to a new account (`newOwner`). Can only be called by the current owner."
      }
    },
    "title": "Voting dapps",
    "version": 1
  },
  "userdoc": {
    "events": {
      "LogDepositReceived(address)": {
        "notice": "event for the received() function"
      },
      "ProposalRegistered(uint256)": {
        "notice": "Returns each new proposal registered"
      },
      "Voted(address,uint256)": {
        "notice": "Returns each vote registered (voter + proposal voted)"
      },
      "VoterRegistered(address)": {
        "notice": "Returns the address of each new voter registered"
      },
      "WorkflowStatusChange(uint8,uint8)": {
        "notice": "Returns the old and the new workflow status"
      }
    },
    "kind": "user",
    "methods": {
      "addProposal(string)": {
        "notice": "add a new proposal sor the session. Only for registered voters"
      },
      "addVoter(address)": {
        "notice": "add a new voter sor the session. Only for admin"
      },
      "endProposalsRegistering()": {
        "notice": "status modifidation function. Stop the proposal registration"
      },
      "endVotingSession()": {
        "notice": "status modifidation function. End the voting session"
      },
      "getOneProposal(uint256)": {
        "notice": "function used to get a proposal"
      },
      "getVoter(address)": {
        "notice": "function used to get a voter status"
      },
      "restartSession()": {
        "notice": "funciton to aese the front end development. Non core function for the final DAPP"
      },
      "setVote(uint256)": {
        "notice": "set the vote of a registered voter and update the winning proposal if needed"
      },
      "startProposalsRegistering()": {
        "notice": "status modifidation function. Launch the proposal registration and init the pre registered proposal"
      },
      "startVotingSession()": {
        "notice": "status modifidation function. Start the voting session"
      },
      "tallyVotes()": {
        "notice": "status modifidation function. Tally the vote"
      },
      "winningProposalID()": {
        "notice": "This uint allow to identify le winning proposal at the end of the process"
      }
    },
    "notice": "This contract is a simple voting software. Admin can manage voters, proposals and voting session process. Voters can...vote !",
    "version": 1
  }
}