{
  "contractName": "Voting",
  "abi": [
    {
      "anonymous": false,
      "inputs": [
        {
          "indexed": true,
          "internalType": "address",
          "name": "previousOwner",
          "type": "address"
        },
        {
          "indexed": true,
          "internalType": "address",
          "name": "newOwner",
          "type": "address"
        }
      ],
      "name": "OwnershipTransferred",
      "type": "event"
    },
    {
      "anonymous": false,
      "inputs": [
        {
          "indexed": false,
          "internalType": "uint256",
          "name": "proposalId",
          "type": "uint256"
        }
      ],
      "name": "ProposalRegistered",
      "type": "event"
    },
    {
      "anonymous": false,
      "inputs": [
        {
          "indexed": false,
          "internalType": "address",
          "name": "voter",
          "type": "address"
        },
        {
          "indexed": false,
          "internalType": "uint256",
          "name": "proposalId",
          "type": "uint256"
        }
      ],
      "name": "Voted",
      "type": "event"
    },
    {
      "anonymous": false,
      "inputs": [
        {
          "indexed": false,
          "internalType": "address",
          "name": "voterAddress",
          "type": "address"
        }
      ],
      "name": "VoterRegistered",
      "type": "event"
    },
    {
      "anonymous": false,
      "inputs": [
        {
          "indexed": false,
          "internalType": "enum Voting.WorkflowStatus",
          "name": "previousStatus",
          "type": "uint8"
        },
        {
          "indexed": false,
          "internalType": "enum Voting.WorkflowStatus",
          "name": "newStatus",
          "type": "uint8"
        }
      ],
      "name": "WorkflowStatusChange",
      "type": "event"
    },
    {
      "inputs": [],
      "name": "owner",
      "outputs": [
        {
          "internalType": "address",
          "name": "",
          "type": "address"
        }
      ],
      "stateMutability": "view",
      "type": "function",
      "constant": true
    },
    {
      "inputs": [],
      "name": "renounceOwnership",
      "outputs": [],
      "stateMutability": "nonpayable",
      "type": "function"
    },
    {
      "inputs": [
        {
          "internalType": "address",
          "name": "newOwner",
          "type": "address"
        }
      ],
      "name": "transferOwnership",
      "outputs": [],
      "stateMutability": "nonpayable",
      "type": "function"
    },
    {
      "inputs": [],
      "name": "winningProposalID",
      "outputs": [
        {
          "internalType": "uint256",
          "name": "",
          "type": "uint256"
        }
      ],
      "stateMutability": "view",
      "type": "function",
      "constant": true
    },
    {
      "inputs": [],
      "name": "workflowStatus",
      "outputs": [
        {
          "internalType": "enum Voting.WorkflowStatus",
          "name": "",
          "type": "uint8"
        }
      ],
      "stateMutability": "view",
      "type": "function",
      "constant": true
    },
    {
      "inputs": [
        {
          "internalType": "address",
          "name": "_addr",
          "type": "address"
        }
      ],
      "name": "getVoter",
      "outputs": [
        {
          "components": [
            {
              "internalType": "bool",
              "name": "isRegistered",
              "type": "bool"
            },
            {
              "internalType": "bool",
              "name": "hasVoted",
              "type": "bool"
            },
            {
              "internalType": "uint256",
              "name": "votedProposalId",
              "type": "uint256"
            }
          ],
          "internalType": "struct Voting.Voter",
          "name": "",
          "type": "tuple"
        }
      ],
      "stateMutability": "view",
      "type": "function",
      "constant": true
    },
    {
      "inputs": [
        {
          "internalType": "uint256",
          "name": "_id",
          "type": "uint256"
        }
      ],
      "name": "getOneProposal",
      "outputs": [
        {
          "components": [
            {
              "internalType": "string",
              "name": "description",
              "type": "string"
            },
            {
              "internalType": "uint256",
              "name": "voteCount",
              "type": "uint256"
            }
          ],
          "internalType": "struct Voting.Proposal",
          "name": "",
          "type": "tuple"
        }
      ],
      "stateMutability": "view",
      "type": "function",
      "constant": true
    },
    {
      "inputs": [
        {
          "internalType": "address",
          "name": "_addr",
          "type": "address"
        }
      ],
      "name": "addVoter",
      "outputs": [],
      "stateMutability": "nonpayable",
      "type": "function"
    },
    {
      "inputs": [
        {
          "internalType": "string",
          "name": "_desc",
          "type": "string"
        }
      ],
      "name": "addProposal",
      "outputs": [],
      "stateMutability": "nonpayable",
      "type": "function"
    },
    {
      "inputs": [
        {
          "internalType": "uint256",
          "name": "_id",
          "type": "uint256"
        }
      ],
      "name": "setVote",
      "outputs": [],
      "stateMutability": "nonpayable",
      "type": "function"
    },
    {
      "inputs": [],
      "name": "startProposalsRegistering",
      "outputs": [],
      "stateMutability": "nonpayable",
      "type": "function"
    },
    {
      "inputs": [],
      "name": "endProposalsRegistering",
      "outputs": [],
      "stateMutability": "nonpayable",
      "type": "function"
    },
    {
      "inputs": [],
      "name": "startVotingSession",
      "outputs": [],
      "stateMutability": "nonpayable",
      "type": "function"
    },
    {
      "inputs": [],
      "name": "endVotingSession",
      "outputs": [],
      "stateMutability": "nonpayable",
      "type": "function"
    },
    {
      "inputs": [],
      "name": "tallyVotes",
      "outputs": [],
      "stateMutability": "nonpayable",
      "type": "function"
    },
    {
      "inputs": [],
      "name": "restartSession",
      "outputs": [],
      "stateMutability": "nonpayable",
      "type": "function"
    }
  ],
  "bytecode": "0x60806040523480156200001157600080fd5b5062000032620000266200003860201b60201c565b6200004060201b60201c565b62000104565b600033905090565b60008060009054906101000a900473ffffffffffffffffffffffffffffffffffffffff169050816000806101000a81548173ffffffffffffffffffffffffffffffffffffffff021916908373ffffffffffffffffffffffffffffffffffffffff1602179055508173ffffffffffffffffffffffffffffffffffffffff168173ffffffffffffffffffffffffffffffffffffffff167f8be0079c531659141344cd1fd0a4f28419497f9722a3daafe3b4186f6b6457e060405160405180910390a35050565b61260980620001146000396000f3fe608060405234801561001057600080fd5b50600436106101005760003560e01c8063a7bfab1611610097578063d4f50f9811610066578063d4f50f9814610203578063ee74c67814610233578063f2fde38b1461023d578063f4ab9adf1461025957610100565b8063a7bfab16146101c7578063bdc01431146101d1578063c7038a4e146101ef578063c88af42f146101f957610100565b8063795769e5116100d3578063795769e5146101515780638da5cb5b1461015b578063a1edffa214610179578063a2788cce1461019757610100565b8063230796ae146101055780632fdae3c514610121578063378a21781461013d578063715018a614610147575b600080fd5b61011f600480360381019061011a91906115b4565b610275565b005b61013b60048036038101906101369190611646565b610570565b005b6101456107f3565b005b61014f610960565b005b610159610974565b005b6101636109e4565b60405161017091906116d4565b60405180910390f35b610181610a0d565b60405161018e9190611766565b60405180910390f35b6101b160048036038101906101ac91906115b4565b610a20565b6040516101be919061185d565b60405180910390f35b6101cf610b87565b005b6101d9610c6d565b6040516101e6919061188e565b60405180910390f35b6101f7610c73565b005b610201610ecc565b005b61021d600480360381019061021891906118d5565b610fb1565b60405161022a919061195f565b60405180910390f35b61023b6110d9565b005b610257600480360381019061025291906118d5565b6111bf565b005b610273600480360381019061026e91906118d5565b611242565b005b600460003373ffffffffffffffffffffffffffffffffffffffff1673ffffffffffffffffffffffffffffffffffffffff16815260200190815260200160002060000160009054906101000a900460ff16610304576040517f08c379a00000000000000000000000000000000000000000000000000000000081526004016102fb906119d7565b60405180910390fd5b60036005811115610318576103176116ef565b5b600260009054906101000a900460ff16600581111561033a576103396116ef565b5b1461037a576040517f08c379a000000000000000000000000000000000000000000000000000000000815260040161037190611a69565b60405180910390fd5b60011515600460003373ffffffffffffffffffffffffffffffffffffffff1673ffffffffffffffffffffffffffffffffffffffff16815260200190815260200160002060000160019054906101000a900460ff16151503610410576040517f08c379a000000000000000000000000000000000000000000000000000000000815260040161040790611ad5565b60405180910390fd5b6003805490508110610457576040517f08c379a000000000000000000000000000000000000000000000000000000000815260040161044e90611b41565b60405180910390fd5b80600460003373ffffffffffffffffffffffffffffffffffffffff1673ffffffffffffffffffffffffffffffffffffffff168152602001908152602001600020600101819055506001600460003373ffffffffffffffffffffffffffffffffffffffff1673ffffffffffffffffffffffffffffffffffffffff16815260200190815260200160002060000160016101000a81548160ff0219169083151502179055506003818154811061050d5761050c611b61565b5b9060005260206000209060020201600101600081548092919061052f90611bbf565b91905055507f4d99b957a2bc29a30ebd96a7be8e68fe50a3c701db28a91436490b7d53870ca43382604051610565929190611c07565b60405180910390a150565b600460003373ffffffffffffffffffffffffffffffffffffffff1673ffffffffffffffffffffffffffffffffffffffff16815260200190815260200160002060000160009054906101000a900460ff166105ff576040517f08c379a00000000000000000000000000000000000000000000000000000000081526004016105f6906119d7565b60405180910390fd5b60016005811115610613576106126116ef565b5b600260009054906101000a900460ff166005811115610635576106346116ef565b5b14610675576040517f08c379a000000000000000000000000000000000000000000000000000000000815260040161066c90611c7c565b60405180910390fd5b60405160200161068490611cc2565b6040516020818303038152906040528051906020012082826040516020016106ad929190611d1e565b6040516020818303038152906040528051906020012003610703576040517f08c379a00000000000000000000000000000000000000000000000000000000081526004016106fa90611db4565b60405180910390fd5b61070b611535565b82828080601f016020809104026020016040519081016040528093929190818152602001838380828437600081840152601f19601f82011690508083019250505050505050816000018190525060038190806001815401808255809150506001900390600052602060002090600202016000909190919091506000820151816000019081610799919061200f565b506020820151816001015550507f92e393e9b54e2f801d3ea4beb0c5e71a21cc34a5d34b77d0fb8a3aa1650dc18f60016003805490506107d991906120e1565b6040516107e6919061188e565b60405180910390a1505050565b6107fb6113eb565b6004600581111561080f5761080e6116ef565b5b600260009054906101000a900460ff166005811115610831576108306116ef565b5b14610871576040517f08c379a000000000000000000000000000000000000000000000000000000000815260040161086890612187565b60405180910390fd5b600080600090505b6003805490508110156108ef576003828154811061089a57610899611b61565b5b906000526020600020906002020160010154600382815481106108c0576108bf611b61565b5b90600052602060002090600202016001015411156108dc578091505b80806108e790611bbf565b915050610879565b50806001819055506005600260006101000a81548160ff0219169083600581111561091d5761091c6116ef565b5b02179055507f0a97a4ee45751e2abf3e4fc8946939630b11b371ea8ae39ccdc3056e98f5cc3f600460056040516109559291906121a7565b60405180910390a150565b6109686113eb565b6109726000611469565b565b61097c6113eb565b6000600260006101000a81548160ff021916908360058111156109a2576109a16116ef565b5b02179055507f0a97a4ee45751e2abf3e4fc8946939630b11b371ea8ae39ccdc3056e98f5cc3f600460006040516109da9291906121a7565b60405180910390a1565b60008060009054906101000a900473ffffffffffffffffffffffffffffffffffffffff16905090565b600260009054906101000a900460ff1681565b610a28611535565b600460003373ffffffffffffffffffffffffffffffffffffffff1673ffffffffffffffffffffffffffffffffffffffff16815260200190815260200160002060000160009054906101000a900460ff16610ab7576040517f08c379a0000000000000000000000000000000000000000000000000000000008152600401610aae906119d7565b60405180910390fd5b60038281548110610acb57610aca611b61565b5b9060005260206000209060020201604051806040016040529081600082018054610af490611e32565b80601f0160208091040260200160405190810160405280929190818152602001828054610b2090611e32565b8015610b6d5780601f10610b4257610100808354040283529160200191610b6d565b820191906000526020600020905b815481529060010190602001808311610b5057829003601f168201915b505050505081526020016001820154815250509050919050565b610b8f6113eb565b60036005811115610ba357610ba26116ef565b5b600260009054906101000a900460ff166005811115610bc557610bc46116ef565b5b14610c05576040517f08c379a0000000000000000000000000000000000000000000000000000000008152600401610bfc90611a69565b60405180910390fd5b6004600260006101000a81548160ff02191690836005811115610c2b57610c2a6116ef565b5b02179055507f0a97a4ee45751e2abf3e4fc8946939630b11b371ea8ae39ccdc3056e98f5cc3f60036004604051610c639291906121a7565b60405180910390a1565b60015481565b610c7b6113eb565b60006005811115610c8f57610c8e6116ef565b5b600260009054906101000a900460ff166005811115610cb157610cb06116ef565b5b14610cf1576040517f08c379a0000000000000000000000000000000000000000000000000000000008152600401610ce890612242565b60405180910390fd5b6001600260006101000a81548160ff02191690836005811115610d1757610d166116ef565b5b0217905550610d24611535565b6040518060400160405280601681526020017f444f204b574f4e20666f72204c554e4120637261736800000000000000000000815250816000018190525060038190806001815401808255809150506001900390600052602060002090600202016000909190919091506000820151816000019081610da3919061200f565b506020820151816001015550506040518060600160405280602281526020016125b260229139816000018190525060038190806001815401808255809150506001900390600052602060002090600202016000909190919091506000820151816000019081610e12919061200f565b506020820151816001015550506040518060600160405280602f8152602001612583602f9139816000018190525060038190806001815401808255809150506001900390600052602060002090600202016000909190919091506000820151816000019081610e81919061200f565b506020820151816001015550507f0a97a4ee45751e2abf3e4fc8946939630b11b371ea8ae39ccdc3056e98f5cc3f60006001604051610ec19291906121a7565b60405180910390a150565b610ed46113eb565b60016005811115610ee857610ee76116ef565b5b600260009054906101000a900460ff166005811115610f0a57610f096116ef565b5b14610f4a576040517f08c379a0000000000000000000000000000000000000000000000000000000008152600401610f41906122d4565b60405180910390fd5b60028060006101000a81548160ff02191690836005811115610f6f57610f6e6116ef565b5b02179055507f0a97a4ee45751e2abf3e4fc8946939630b11b371ea8ae39ccdc3056e98f5cc3f60016002604051610fa79291906121a7565b60405180910390a1565b610fb961154f565b600460003373ffffffffffffffffffffffffffffffffffffffff1673ffffffffffffffffffffffffffffffffffffffff16815260200190815260200160002060000160009054906101000a900460ff16611048576040517f08c379a000000000000000000000000000000000000000000000000000000000815260040161103f906119d7565b60405180910390fd5b600460008373ffffffffffffffffffffffffffffffffffffffff1673ffffffffffffffffffffffffffffffffffffffff1681526020019081526020016000206040518060600160405290816000820160009054906101000a900460ff161515151581526020016000820160019054906101000a900460ff161515151581526020016001820154815250509050919050565b6110e16113eb565b600260058111156110f5576110f46116ef565b5b600260009054906101000a900460ff166005811115611117576111166116ef565b5b14611157576040517f08c379a000000000000000000000000000000000000000000000000000000000815260040161114e90612366565b60405180910390fd5b6003600260006101000a81548160ff0219169083600581111561117d5761117c6116ef565b5b02179055507f0a97a4ee45751e2abf3e4fc8946939630b11b371ea8ae39ccdc3056e98f5cc3f600260036040516111b59291906121a7565b60405180910390a1565b6111c76113eb565b600073ffffffffffffffffffffffffffffffffffffffff168173ffffffffffffffffffffffffffffffffffffffff1603611236576040517f08c379a000000000000000000000000000000000000000000000000000000000815260040161122d906123f8565b60405180910390fd5b61123f81611469565b50565b61124a6113eb565b6000600581111561125e5761125d6116ef565b5b600260009054906101000a900460ff1660058111156112805761127f6116ef565b5b146112c0576040517f08c379a00000000000000000000000000000000000000000000000000000000081526004016112b79061248a565b60405180910390fd5b60011515600460008373ffffffffffffffffffffffffffffffffffffffff1673ffffffffffffffffffffffffffffffffffffffff16815260200190815260200160002060000160009054906101000a900460ff16151503611356576040517f08c379a000000000000000000000000000000000000000000000000000000000815260040161134d906124f6565b60405180910390fd5b6001600460008373ffffffffffffffffffffffffffffffffffffffff1673ffffffffffffffffffffffffffffffffffffffff16815260200190815260200160002060000160006101000a81548160ff0219169083151502179055507fb6be2187d059cc2a55fe29e0e503b566e1e0f8c8780096e185429350acffd3dd816040516113e091906116d4565b60405180910390a150565b6113f361152d565b73ffffffffffffffffffffffffffffffffffffffff166114116109e4565b73ffffffffffffffffffffffffffffffffffffffff1614611467576040517f08c379a000000000000000000000000000000000000000000000000000000000815260040161145e90612562565b60405180910390fd5b565b60008060009054906101000a900473ffffffffffffffffffffffffffffffffffffffff169050816000806101000a81548173ffffffffffffffffffffffffffffffffffffffff021916908373ffffffffffffffffffffffffffffffffffffffff1602179055508173ffffffffffffffffffffffffffffffffffffffff168173ffffffffffffffffffffffffffffffffffffffff167f8be0079c531659141344cd1fd0a4f28419497f9722a3daafe3b4186f6b6457e060405160405180910390a35050565b600033905090565b604051806040016040528060608152602001600081525090565b6040518060600160405280600015158152602001600015158152602001600081525090565b600080fd5b600080fd5b6000819050919050565b6115918161157e565b811461159c57600080fd5b50565b6000813590506115ae81611588565b92915050565b6000602082840312156115ca576115c9611574565b5b60006115d88482850161159f565b91505092915050565b600080fd5b600080fd5b600080fd5b60008083601f840112611606576116056115e1565b5b8235905067ffffffffffffffff811115611623576116226115e6565b5b60208301915083600182028301111561163f5761163e6115eb565b5b9250929050565b6000806020838503121561165d5761165c611574565b5b600083013567ffffffffffffffff81111561167b5761167a611579565b5b611687858286016115f0565b92509250509250929050565b600073ffffffffffffffffffffffffffffffffffffffff82169050919050565b60006116be82611693565b9050919050565b6116ce816116b3565b82525050565b60006020820190506116e960008301846116c5565b92915050565b7f4e487b7100000000000000000000000000000000000000000000000000000000600052602160045260246000fd5b6006811061172f5761172e6116ef565b5b50565b60008190506117408261171e565b919050565b600061175082611732565b9050919050565b61176081611745565b82525050565b600060208201905061177b6000830184611757565b92915050565b600081519050919050565b600082825260208201905092915050565b60005b838110156117bb5780820151818401526020810190506117a0565b60008484015250505050565b6000601f19601f8301169050919050565b60006117e382611781565b6117ed818561178c565b93506117fd81856020860161179d565b611806816117c7565b840191505092915050565b61181a8161157e565b82525050565b6000604083016000830151848203600086015261183d82826117d8565b91505060208301516118526020860182611811565b508091505092915050565b600060208201905081810360008301526118778184611820565b905092915050565b6118888161157e565b82525050565b60006020820190506118a3600083018461187f565b92915050565b6118b2816116b3565b81146118bd57600080fd5b50565b6000813590506118cf816118a9565b92915050565b6000602082840312156118eb576118ea611574565b5b60006118f9848285016118c0565b91505092915050565b60008115159050919050565b61191781611902565b82525050565b606082016000820151611933600085018261190e565b506020820151611946602085018261190e565b5060408201516119596040850182611811565b50505050565b6000606082019050611974600083018461191d565b92915050565b600082825260208201905092915050565b7f596f75277265206e6f74206120766f7465720000000000000000000000000000600082015250565b60006119c160128361197a565b91506119cc8261198b565b602082019050919050565b600060208201905081810360008301526119f0816119b4565b9050919050565b7f566f74696e672073657373696f6e20686176656e74207374617274656420796560008201527f7400000000000000000000000000000000000000000000000000000000000000602082015250565b6000611a5360218361197a565b9150611a5e826119f7565b604082019050919050565b60006020820190508181036000830152611a8281611a46565b9050919050565b7f596f75206861766520616c726561647920766f74656400000000000000000000600082015250565b6000611abf60168361197a565b9150611aca82611a89565b602082019050919050565b60006020820190508181036000830152611aee81611ab2565b9050919050565b7f50726f706f73616c206e6f7420666f756e640000000000000000000000000000600082015250565b6000611b2b60128361197a565b9150611b3682611af5565b602082019050919050565b60006020820190508181036000830152611b5a81611b1e565b9050919050565b7f4e487b7100000000000000000000000000000000000000000000000000000000600052603260045260246000fd5b7f4e487b7100000000000000000000000000000000000000000000000000000000600052601160045260246000fd5b6000611bca8261157e565b91507fffffffffffffffffffffffffffffffffffffffffffffffffffffffffffffffff8203611bfc57611bfb611b90565b5b600182019050919050565b6000604082019050611c1c60008301856116c5565b611c29602083018461187f565b9392505050565b7f50726f706f73616c7320617265206e6f7420616c6c6f77656420796574000000600082015250565b6000611c66601d8361197a565b9150611c7182611c30565b602082019050919050565b60006020820190508181036000830152611c9581611c59565b9050919050565b50565b6000611cac60008361197a565b9150611cb782611c9c565b600082019050919050565b60006020820190508181036000830152611cdb81611c9f565b9050919050565b82818337600083830152505050565b6000611cfd838561197a565b9350611d0a838584611ce2565b611d13836117c7565b840190509392505050565b60006020820190508181036000830152611d39818486611cf1565b90509392505050565b7f566f7573206e6520706f7576657a20706173206e65207269656e2070726f706f60008201527f7365720000000000000000000000000000000000000000000000000000000000602082015250565b6000611d9e60238361197a565b9150611da982611d42565b604082019050919050565b60006020820190508181036000830152611dcd81611d91565b9050919050565b7f4e487b7100000000000000000000000000000000000000000000000000000000600052604160045260246000fd5b7f4e487b7100000000000000000000000000000000000000000000000000000000600052602260045260246000fd5b60006002820490506001821680611e4a57607f821691505b602082108103611e5d57611e5c611e03565b5b50919050565b60008190508160005260206000209050919050565b60006020601f8301049050919050565b600082821b905092915050565b600060088302611ec57fffffffffffffffffffffffffffffffffffffffffffffffffffffffffffffffff82611e88565b611ecf8683611e88565b95508019841693508086168417925050509392505050565b6000819050919050565b6000611f0c611f07611f028461157e565b611ee7565b61157e565b9050919050565b6000819050919050565b611f2683611ef1565b611f3a611f3282611f13565b848454611e95565b825550505050565b600090565b611f4f611f42565b611f5a818484611f1d565b505050565b5b81811015611f7e57611f73600082611f47565b600181019050611f60565b5050565b601f821115611fc357611f9481611e63565b611f9d84611e78565b81016020851015611fac578190505b611fc0611fb885611e78565b830182611f5f565b50505b505050565b600082821c905092915050565b6000611fe660001984600802611fc8565b1980831691505092915050565b6000611fff8383611fd5565b9150826002028217905092915050565b61201882611781565b67ffffffffffffffff81111561203157612030611dd4565b5b61203b8254611e32565b612046828285611f82565b600060209050601f8311600181146120795760008415612067578287015190505b6120718582611ff3565b8655506120d9565b601f19841661208786611e63565b60005b828110156120af5784890151825560018201915060208501945060208101905061208a565b868310156120cc57848901516120c8601f891682611fd5565b8355505b6001600288020188555050505b505050505050565b60006120ec8261157e565b91506120f78361157e565b925082820390508181111561210f5761210e611b90565b5b92915050565b7f43757272656e7420737461747573206973206e6f7420766f74696e672073657360008201527f73696f6e20656e64656400000000000000000000000000000000000000000000602082015250565b6000612171602a8361197a565b915061217c82612115565b604082019050919050565b600060208201905081810360008301526121a081612164565b9050919050565b60006040820190506121bc6000830185611757565b6121c96020830184611757565b9392505050565b7f5265676973746572696e672070726f706f73616c732063616e7420626520737460008201527f6172746564206e6f770000000000000000000000000000000000000000000000602082015250565b600061222c60298361197a565b9150612237826121d0565b604082019050919050565b6000602082019050818103600083015261225b8161221f565b9050919050565b7f5265676973746572696e672070726f706f73616c7320686176656e742073746160008201527f7274656420796574000000000000000000000000000000000000000000000000602082015250565b60006122be60288361197a565b91506122c982612262565b604082019050919050565b600060208201905081810360008301526122ed816122b1565b9050919050565b7f5265676973746572696e672070726f706f73616c73207068617365206973206e60008201527f6f742066696e6973686564000000000000000000000000000000000000000000602082015250565b6000612350602b8361197a565b915061235b826122f4565b604082019050919050565b6000602082019050818103600083015261237f81612343565b9050919050565b7f4f776e61626c653a206e6577206f776e657220697320746865207a65726f206160008201527f6464726573730000000000000000000000000000000000000000000000000000602082015250565b60006123e260268361197a565b91506123ed82612386565b604082019050919050565b60006020820190508181036000830152612411816123d5565b9050919050565b7f566f7465727320726567697374726174696f6e206973206e6f74206f70656e2060008201527f7965740000000000000000000000000000000000000000000000000000000000602082015250565b600061247460238361197a565b915061247f82612418565b604082019050919050565b600060208201905081810360008301526124a381612467565b9050919050565b7f416c726561647920726567697374657265640000000000000000000000000000600082015250565b60006124e060128361197a565b91506124eb826124aa565b602082019050919050565b6000602082019050818103600083015261250f816124d3565b9050919050565b7f4f776e61626c653a2063616c6c6572206973206e6f7420746865206f776e6572600082015250565b600061254c60208361197a565b915061255782612516565b602082019050919050565b6000602082019050818103600083015261257b8161253f565b905091905056fe53424620666f72203130422073746f6c6c656e20212120286d79206661766f72697465206f6e652e2e2e7368757429414c4558204d415348494e534b5920666f722043454c534955532062616e6b72756ea264697066735822122011aeed270eab7213960cc8ec8443b1983f9aa16d94643ecfbeff45cc226b0d6464736f6c63430008110033",
  "immutableReferences": {},
  "source": "// SPDX-License-Identifier: MIT\n\npragma solidity 0.8.17;\nimport \"../node_modules/@openzeppelin/contracts/access/Ownable.sol\";\n\ncontract Voting is Ownable {\n    uint256 public winningProposalID;\n\n    struct Voter {\n        bool isRegistered;\n        bool hasVoted;\n        uint256 votedProposalId;\n    }\n\n    struct Proposal {\n        string description;\n        uint256 voteCount;\n    }\n\n    enum WorkflowStatus {\n        RegisteringVoters,\n        ProposalsRegistrationStarted,\n        ProposalsRegistrationEnded,\n        VotingSessionStarted,\n        VotingSessionEnded,\n        VotesTallied\n    }\n\n    WorkflowStatus public workflowStatus;\n    Proposal[] proposalsArray;\n    mapping(address => Voter) voters;\n\n    event VoterRegistered(address voterAddress);\n    event WorkflowStatusChange(\n        WorkflowStatus previousStatus,\n        WorkflowStatus newStatus\n    );\n    event ProposalRegistered(uint256 proposalId);\n    event Voted(address voter, uint256 proposalId);\n\n    modifier onlyVoters() {\n        require(voters[msg.sender].isRegistered, \"You're not a voter\");\n        _;\n    }\n\n    // on peut faire un modifier pour les tats\n\n    // ::::::::::::: GETTERS ::::::::::::: //\n\n    function getVoter(address _addr)\n        external\n        view\n        onlyVoters\n        returns (Voter memory)\n    {\n        return voters[_addr];\n    }\n\n    function getOneProposal(uint256 _id)\n        external\n        view\n        onlyVoters\n        returns (Proposal memory)\n    {\n        return proposalsArray[_id];\n    }\n\n    // ::::::::::::: REGISTRATION ::::::::::::: //\n\n    function addVoter(address _addr) external onlyOwner {\n        require(\n            workflowStatus == WorkflowStatus.RegisteringVoters,\n            \"Voters registration is not open yet\"\n        );\n        require(voters[_addr].isRegistered != true, \"Already registered\");\n\n        voters[_addr].isRegistered = true;\n        emit VoterRegistered(_addr);\n    }\n\n    // ::::::::::::: PROPOSAL ::::::::::::: //\n\n    function addProposal(string calldata _desc) external onlyVoters {\n        require(\n            workflowStatus == WorkflowStatus.ProposalsRegistrationStarted,\n            \"Proposals are not allowed yet\"\n        );\n        require(\n            keccak256(abi.encode(_desc)) != keccak256(abi.encode(\"\")),\n            \"Vous ne pouvez pas ne rien proposer\"\n        ); // facultatif\n        // voir que desc est different des autres\n\n        Proposal memory proposal;\n        proposal.description = _desc;\n        proposalsArray.push(proposal);\n        emit ProposalRegistered(proposalsArray.length - 1);\n    }\n\n    // ::::::::::::: VOTE ::::::::::::: //\n\n    function setVote(uint256 _id) external onlyVoters {\n        require(\n            workflowStatus == WorkflowStatus.VotingSessionStarted,\n            \"Voting session havent started yet\"\n        );\n        require(voters[msg.sender].hasVoted != true, \"You have already voted\");\n        require(_id < proposalsArray.length, \"Proposal not found\"); // pas oblig, et pas besoin du >0 car uint\n\n        voters[msg.sender].votedProposalId = _id;\n        voters[msg.sender].hasVoted = true;\n        proposalsArray[_id].voteCount++;\n\n        emit Voted(msg.sender, _id);\n    }\n\n    // ::::::::::::: STATE ::::::::::::: //\n\n    function startProposalsRegistering() external onlyOwner {\n        require(\n            workflowStatus == WorkflowStatus.RegisteringVoters,\n            \"Registering proposals cant be started now\"\n        );\n        workflowStatus = WorkflowStatus.ProposalsRegistrationStarted;\n\n        Proposal memory proposal;\n        proposal.description = \"DO KWON for LUNA crash\";\n        proposalsArray.push(proposal);\n        proposal.description = \"ALEX MASHINSKY for CELSIUS bankrun\";\n        proposalsArray.push(proposal);\n        proposal\n            .description = \"SBF for 10B stollen !! (my favorite one...shut)\";\n        proposalsArray.push(proposal);\n\n        emit WorkflowStatusChange(\n            WorkflowStatus.RegisteringVoters,\n            WorkflowStatus.ProposalsRegistrationStarted\n        );\n    }\n\n    function endProposalsRegistering() external onlyOwner {\n        require(\n            workflowStatus == WorkflowStatus.ProposalsRegistrationStarted,\n            \"Registering proposals havent started yet\"\n        );\n        workflowStatus = WorkflowStatus.ProposalsRegistrationEnded;\n        emit WorkflowStatusChange(\n            WorkflowStatus.ProposalsRegistrationStarted,\n            WorkflowStatus.ProposalsRegistrationEnded\n        );\n    }\n\n    function startVotingSession() external onlyOwner {\n        require(\n            workflowStatus == WorkflowStatus.ProposalsRegistrationEnded,\n            \"Registering proposals phase is not finished\"\n        );\n        workflowStatus = WorkflowStatus.VotingSessionStarted;\n        emit WorkflowStatusChange(\n            WorkflowStatus.ProposalsRegistrationEnded,\n            WorkflowStatus.VotingSessionStarted\n        );\n    }\n\n    function endVotingSession() external onlyOwner {\n        require(\n            workflowStatus == WorkflowStatus.VotingSessionStarted,\n            \"Voting session havent started yet\"\n        );\n        workflowStatus = WorkflowStatus.VotingSessionEnded;\n        emit WorkflowStatusChange(\n            WorkflowStatus.VotingSessionStarted,\n            WorkflowStatus.VotingSessionEnded\n        );\n    }\n\n    function tallyVotes() external onlyOwner {\n        require(\n            workflowStatus == WorkflowStatus.VotingSessionEnded,\n            \"Current status is not voting session ended\"\n        );\n        uint256 _winningProposalId;\n        for (uint256 p = 0; p < proposalsArray.length; p++) {\n            if (\n                proposalsArray[p].voteCount >\n                proposalsArray[_winningProposalId].voteCount\n            ) {\n                _winningProposalId = p;\n            }\n        }\n        winningProposalID = _winningProposalId;\n\n        workflowStatus = WorkflowStatus.VotesTallied;\n        emit WorkflowStatusChange(\n            WorkflowStatus.VotingSessionEnded,\n            WorkflowStatus.VotesTallied\n        );\n    }\n\n    function restartSession() external onlyOwner {\n        workflowStatus = WorkflowStatus.RegisteringVoters;\n        emit WorkflowStatusChange(\n            WorkflowStatus.VotingSessionEnded,\n            WorkflowStatus.RegisteringVoters\n        );\n    }\n}\n",
  "sourcePath": "/Users/jeromejulien/Documents/vscode/FormationAlyra/02_Projets/Alyra_projet3_DAPPS_Voting/truffle/contracts/Voting_with_DOSGasLimitRisk.sol.sol",
  "compiler": {
    "name": "solc",
    "version": "0.8.17+commit.8df45f5f.Emscripten.clang"
  },
  "schemaVersion": "3.4.10",
  "updatedAt": "2022-11-20T17:27:58.798Z",
  "networkType": "ethereum",
  "devdoc": {
    "kind": "dev",
    "methods": {
      "owner()": {
        "details": "Returns the address of the current owner."
      },
      "renounceOwnership()": {
        "details": "Leaves the contract without owner. It will not be possible to call `onlyOwner` functions anymore. Can only be called by the current owner. NOTE: Renouncing ownership will leave the contract without an owner, thereby removing any functionality that is only available to the owner."
      },
      "transferOwnership(address)": {
        "details": "Transfers ownership of the contract to a new account (`newOwner`). Can only be called by the current owner."
      }
    },
    "version": 1
  },
  "userdoc": {
    "kind": "user",
    "methods": {},
    "version": 1
  }
}